{
  "contractName": "ETHUSD",
  "abi": [
    {
      "inputs": [],
      "stateMutability": "payable",
      "type": "constructor"
    },
    {
      "anonymous": false,
      "inputs": [
        {
          "indexed": false,
          "internalType": "string",
          "name": "_nextStep",
          "type": "string"
        }
      ],
      "name": "LogConstructorInitiated",
      "type": "event"
    },
    {
      "anonymous": false,
      "inputs": [
        {
          "indexed": false,
          "internalType": "string",
          "name": "_description",
          "type": "string"
        }
      ],
      "name": "LogNewProvableQuery",
      "type": "event"
    },
    {
      "anonymous": false,
      "inputs": [
        {
          "indexed": false,
          "internalType": "string",
          "name": "_price",
          "type": "string"
        }
      ],
      "name": "LogPriceUpdated",
      "type": "event"
    },
    {
      "inputs": [],
      "name": "ctr",
      "outputs": [
        {
          "internalType": "uint256",
          "name": "",
          "type": "uint256"
        }
      ],
      "stateMutability": "view",
      "type": "function"
    },
    {
      "inputs": [],
      "name": "findMean",
      "outputs": [
        {
          "internalType": "string",
          "name": "",
          "type": "string"
        }
      ],
      "stateMutability": "view",
      "type": "function"
    },
    {
      "inputs": [],
      "name": "createPrice",
      "outputs": [],
      "stateMutability": "payable",
      "type": "function"
    },
    {
      "inputs": [
        {
          "internalType": "bytes32",
          "name": "_myid",
          "type": "bytes32"
        },
        {
          "internalType": "string",
          "name": "_result",
          "type": "string"
        }
      ],
      "name": "__callback",
      "outputs": [],
      "stateMutability": "nonpayable",
      "type": "function"
    },
    {
      "inputs": [
        {
          "internalType": "bytes32",
          "name": "_myid",
          "type": "bytes32"
        },
        {
          "internalType": "string",
          "name": "_result",
          "type": "string"
        },
        {
          "internalType": "bytes",
          "name": "_proof",
          "type": "bytes"
        }
      ],
      "name": "__callback",
      "outputs": [],
      "stateMutability": "nonpayable",
      "type": "function"
    },
    {
      "inputs": [
        {
          "internalType": "uint256",
          "name": "_id",
          "type": "uint256"
        }
      ],
      "name": "readPrice",
      "outputs": [
        {
          "internalType": "string",
          "name": "",
          "type": "string"
        }
      ],
      "stateMutability": "view",
      "type": "function"
    },
    {
      "inputs": [
        {
          "internalType": "uint256",
          "name": "_id",
          "type": "uint256"
        },
        {
          "internalType": "string",
          "name": "_price",
          "type": "string"
        }
      ],
      "name": "updatePrice",
      "outputs": [
        {
          "internalType": "bool",
          "name": "",
          "type": "bool"
        }
      ],
      "stateMutability": "nonpayable",
      "type": "function"
    },
    {
      "inputs": [
        {
          "internalType": "uint256",
          "name": "_id",
          "type": "uint256"
        }
      ],
      "name": "deletePrice",
      "outputs": [
        {
          "internalType": "bool",
          "name": "",
          "type": "bool"
        }
      ],
      "stateMutability": "nonpayable",
      "type": "function"
    }
  ],
  "bytecode": "0x60806040527f11a3fca63f87bd67d7f9f72b744acc8be2193705e7a734ac3a773d35d259e87b60405180806020018281038252604b8152602001806200379a604b913960600191505060405180910390a160006005819055506000600681905550620000706200007660201b60201c565b62001197565b47620000bd6040518060400160405280600381526020017f55524c0000000000000000000000000000000000000000000000000000000000815250620001c660201b60201c565b111562000116577fc4dc360d0a9c0677a3379ae0a3d81e887f761e65fdf3d7e00859d1bcd3c4738960405180806020018281038252604b8152602001806200370f604b913960600191505060405180910390a1620001c4565b7fc4dc360d0a9c0677a3379ae0a3d81e887f761e65fdf3d7e00859d1bcd3c47389604051808060200182810382526035815260200180620036da6035913960400191505060405180910390a1620001c26040518060400160405280600381526020017f55524c00000000000000000000000000000000000000000000000000000000008152506040518060600160405280604081526020016200375a604091396200057460201b60201c565b505b565b60008073ffffffffffffffffffffffffffffffffffffffff16600160009054906101000a900473ffffffffffffffffffffffffffffffffffffffff1673ffffffffffffffffffffffffffffffffffffffff161480620002575750600062000255600160009054906101000a900473ffffffffffffffffffffffffffffffffffffffff1662000ae260201b60201c565b145b1562000271576200026f600062000aed60201b60201c565b505b600160009054906101000a900473ffffffffffffffffffffffffffffffffffffffff1673ffffffffffffffffffffffffffffffffffffffff166338cc48316040518163ffffffff1660e01b8152600401602060405180830381600087803b158015620002dc57600080fd5b505af1158015620002f1573d6000803e3d6000fd5b505050506040513d60208110156200030857600080fd5b810190808051906020019092919050505073ffffffffffffffffffffffffffffffffffffffff1660008054906101000a900473ffffffffffffffffffffffffffffffffffffffff1673ffffffffffffffffffffffffffffffffffffffff16146200045457600160009054906101000a900473ffffffffffffffffffffffffffffffffffffffff1673ffffffffffffffffffffffffffffffffffffffff166338cc48316040518163ffffffff1660e01b8152600401602060405180830381600087803b158015620003d757600080fd5b505af1158015620003ec573d6000803e3d6000fd5b505050506040513d60208110156200040357600080fd5b81019080805190602001909291905050506000806101000a81548173ffffffffffffffffffffffffffffffffffffffff021916908373ffffffffffffffffffffffffffffffffffffffff1602179055505b60008054906101000a900473ffffffffffffffffffffffffffffffffffffffff1673ffffffffffffffffffffffffffffffffffffffff1663524f3889836040518263ffffffff1660e01b81526004018080602001828103825283818151815260200191508051906020019080838360005b83811015620004e2578082015181840152602081019050620004c5565b50505050905090810190601f168015620005105780820380516001836020036101000a031916815260200191505b5092505050602060405180830381600087803b1580156200053057600080fd5b505af115801562000545573d6000803e3d6000fd5b505050506040513d60208110156200055c57600080fd5b81019080805190602001909291905050509050919050565b60008073ffffffffffffffffffffffffffffffffffffffff16600160009054906101000a900473ffffffffffffffffffffffffffffffffffffffff1673ffffffffffffffffffffffffffffffffffffffff161480620006055750600062000603600160009054906101000a900473ffffffffffffffffffffffffffffffffffffffff1662000ae260201b60201c565b145b156200061f576200061d600062000aed60201b60201c565b505b600160009054906101000a900473ffffffffffffffffffffffffffffffffffffffff1673ffffffffffffffffffffffffffffffffffffffff166338cc48316040518163ffffffff1660e01b8152600401602060405180830381600087803b1580156200068a57600080fd5b505af11580156200069f573d6000803e3d6000fd5b505050506040513d6020811015620006b657600080fd5b810190808051906020019092919050505073ffffffffffffffffffffffffffffffffffffffff1660008054906101000a900473ffffffffffffffffffffffffffffffffffffffff1673ffffffffffffffffffffffffffffffffffffffff16146200080257600160009054906101000a900473ffffffffffffffffffffffffffffffffffffffff1673ffffffffffffffffffffffffffffffffffffffff166338cc48316040518163ffffffff1660e01b8152600401602060405180830381600087803b1580156200078557600080fd5b505af11580156200079a573d6000803e3d6000fd5b505050506040513d6020811015620007b157600080fd5b81019080805190602001909291905050506000806101000a81548173ffffffffffffffffffffffffffffffffffffffff021916908373ffffffffffffffffffffffffffffffffffffffff1602179055505b60008060009054906101000a900473ffffffffffffffffffffffffffffffffffffffff1673ffffffffffffffffffffffffffffffffffffffff1663524f3889856040518263ffffffff1660e01b81526004018080602001828103825283818151815260200191508051906020019080838360005b838110156200089357808201518184015260208101905062000876565b50505050905090810190601f168015620008c15780820380516001836020036101000a031916815260200191505b5092505050602060405180830381600087803b158015620008e157600080fd5b505af1158015620008f6573d6000803e3d6000fd5b505050506040513d60208110156200090d57600080fd5b8101908080519060200190929190505050905062030d403a02670de0b6b3a76400000181111562000945576000801b91505062000adc565b60008054906101000a900473ffffffffffffffffffffffffffffffffffffffff1673ffffffffffffffffffffffffffffffffffffffff1663adf59f9982600087876040518563ffffffff1660e01b8152600401808481526020018060200180602001838103835285818151815260200191508051906020019080838360005b83811015620009e1578082015181840152602081019050620009c4565b50505050905090810190601f16801562000a0f5780820380516001836020036101000a031916815260200191505b50838103825284818151815260200191508051906020019080838360005b8381101562000a4a57808201518184015260208101905062000a2d565b50505050905090810190601f16801562000a785780820380516001836020036101000a031916815260200191505b50955050505050506020604051808303818588803b15801562000a9a57600080fd5b505af115801562000aaf573d6000803e3d6000fd5b50505050506040513d602081101562000ac757600080fd5b81019080805190602001909291905050509150505b92915050565b6000813b9050919050565b600062000aff62000b0660201b60201c565b9050919050565b60008062000b2e731d3b2638a7cc9f2cb3d298a3da7a90b67e5506ed62000ae260201b60201c565b111562000bda57731d3b2638a7cc9f2cb3d298a3da7a90b67e5506ed600160006101000a81548173ffffffffffffffffffffffffffffffffffffffff021916908373ffffffffffffffffffffffffffffffffffffffff16021790555062000bd06040518060400160405280600b81526020017f6574685f6d61696e6e6574000000000000000000000000000000000000000000815250620010d560201b60201c565b60019050620010d2565b600062000c0173c03a2615d5efaf5f49f60b7bb6583eaec212fdf162000ae260201b60201c565b111562000cad5773c03a2615d5efaf5f49f60b7bb6583eaec212fdf1600160006101000a81548173ffffffffffffffffffffffffffffffffffffffff021916908373ffffffffffffffffffffffffffffffffffffffff16021790555062000ca36040518060400160405280600c81526020017f6574685f726f707374656e330000000000000000000000000000000000000000815250620010d560201b60201c565b60019050620010d2565b600062000cd473b7a07bcf2ba2f2703b24c0691b5278999c59ac7e62000ae260201b60201c565b111562000d805773b7a07bcf2ba2f2703b24c0691b5278999c59ac7e600160006101000a81548173ffffffffffffffffffffffffffffffffffffffff021916908373ffffffffffffffffffffffffffffffffffffffff16021790555062000d766040518060400160405280600981526020017f6574685f6b6f76616e0000000000000000000000000000000000000000000000815250620010d560201b60201c565b60019050620010d2565b600062000da773146500cfd35b22e4a392fe0adc06de1a1368ed4862000ae260201b60201c565b111562000e535773146500cfd35b22e4a392fe0adc06de1a1368ed48600160006101000a81548173ffffffffffffffffffffffffffffffffffffffff021916908373ffffffffffffffffffffffffffffffffffffffff16021790555062000e496040518060400160405280600b81526020017f6574685f72696e6b656279000000000000000000000000000000000000000000815250620010d560201b60201c565b60019050620010d2565b600062000e7a73a2998efd205fb9d4b4963afb70778d6354ad3a4162000ae260201b60201c565b111562000f265773a2998efd205fb9d4b4963afb70778d6354ad3a41600160006101000a81548173ffffffffffffffffffffffffffffffffffffffff021916908373ffffffffffffffffffffffffffffffffffffffff16021790555062000f1c6040518060400160405280600a81526020017f6574685f676f65726c6900000000000000000000000000000000000000000000815250620010d560201b60201c565b60019050620010d2565b600062000f4d736f485c8bf6fc43ea212e93bbf8ce046c7f1cb47562000ae260201b60201c565b111562000fb357736f485c8bf6fc43ea212e93bbf8ce046c7f1cb475600160006101000a81548173ffffffffffffffffffffffffffffffffffffffff021916908373ffffffffffffffffffffffffffffffffffffffff16021790555060019050620010d2565b600062000fda7320e12a1f859b3feae5fb2a0a32c18f5a65555bbf62000ae260201b60201c565b111562001040577320e12a1f859b3feae5fb2a0a32c18f5a65555bbf600160006101000a81548173ffffffffffffffffffffffffffffffffffffffff021916908373ffffffffffffffffffffffffffffffffffffffff16021790555060019050620010d2565b6000620010677351efaf4c8b3c9afbd5ab9f4bbc82784ab6ef8faa62000ae260201b60201c565b1115620010cd577351efaf4c8b3c9afbd5ab9f4bbc82784ab6ef8faa600160006101000a81548173ffffffffffffffffffffffffffffffffffffffff021916908373ffffffffffffffffffffffffffffffffffffffff16021790555060019050620010d2565b600090505b90565b8060029080519060200190620010ed929190620010f1565b5050565b828054600181600116156101000203166002900490600052602060002090601f016020900481019282601f106200113457805160ff191683800117855562001165565b8280016001018555821562001165579182015b828111156200116457825182559160200191906001019062001147565b5b50905062001174919062001178565b5090565b5b808211156200119357600081600090555060010162001179565b5090565b61253380620011a76000396000f3fe60806040526004361061007b5760003560e01c80637103b15b1161004e5780637103b15b1461031657806387e9e77f146103fe57806391335c9514610429578063b6b5ed15146104dd5761007b565b806327dc297e146100805780632a50fe2c1461015257806338bbfa50146101a35780635109095d1461030c575b600080fd5b34801561008c57600080fd5b50610150600480360360408110156100a357600080fd5b8101908080359060200190929190803590602001906401000000008111156100ca57600080fd5b8201836020820111156100dc57600080fd5b803590602001918460018302840111640100000000831117156100fe57600080fd5b91908080601f016020809104026020016040519081016040528093929190818152602001838380828437600081840152601f19601f82011690508083019250505050505050919291929050505061056d565b005b34801561015e57600080fd5b5061018b6004803603602081101561017557600080fd5b8101908080359060200190929190505050610621565b60405180821515815260200191505060405180910390f35b3480156101af57600080fd5b5061030a600480360360608110156101c657600080fd5b8101908080359060200190929190803590602001906401000000008111156101ed57600080fd5b8201836020820111156101ff57600080fd5b8035906020019184600183028401116401000000008311171561022157600080fd5b91908080601f016020809104026020016040519081016040528093929190818152602001838380828437600081840152601f19601f8201169050808301925050505050505091929192908035906020019064010000000081111561028457600080fd5b82018360208201111561029657600080fd5b803590602001918460018302840111640100000000831117156102b857600080fd5b91908080601f016020809104026020016040519081016040528093929190818152602001838380828437600081840152601f19601f8201169050808301925050505050505091929192905050506106f2565b005b610314610715565b005b34801561032257600080fd5b506103e66004803603604081101561033957600080fd5b81019080803590602001909291908035906020019064010000000081111561036057600080fd5b82018360208201111561037257600080fd5b8035906020019184600183028401116401000000008311171561039457600080fd5b91908080601f016020809104026020016040519081016040528093929190818152602001838380828437600081840152601f19601f820116905080830192505050505050509192919290505050610850565b60405180821515815260200191505060405180910390f35b34801561040a57600080fd5b506104136108c5565b6040518082815260200191505060405180910390f35b34801561043557600080fd5b506104626004803603602081101561044c57600080fd5b81019080803590602001909291905050506108cb565b6040518080602001828103825283818151815260200191508051906020019080838360005b838110156104a2578082015181840152602081019050610487565b50505050905090810190601f1680156104cf5780820380516001836020036101000a031916815260200191505b509250505060405180910390f35b3480156104e957600080fd5b506104f26109a9565b6040518080602001828103825283818151815260200191508051906020019080838360005b83811015610532578082015181840152602081019050610517565b50505050905090810190601f16801561055f5780820380516001836020036101000a031916815260200191505b509250505060405180910390f35b610575610a6b565b73ffffffffffffffffffffffffffffffffffffffff163373ffffffffffffffffffffffffffffffffffffffff16146105ac57600080fd5b600560008154809291906001019190505550600660008154809291906001019190505550604051806040016040528060065481526020016105ee836002610d88565b81525060076000600654815260200190815260200160002060008201518160000155602082015181600101559050505050565b6000808211801561063457506006548211155b61063d57600080fd5b60006005541161064c57600080fd5b600061065783610e91565b90506000811161066657600080fd5b600080600190505b60065481116106e557828114156106d857600760008481526020019081526020016000206000808201600090556001820160009055505060056000815480929190600190039190505550600060055414156106cc5760006006819055505b600193505050506106ed565b808060010191505061066e565b506000925050505b919050565b6000801b600360008060001b815260200190815260200160002081905550505050565b476107546040518060400160405280600381526020017f55524c0000000000000000000000000000000000000000000000000000000000815250610ee1565b11156107aa577fc4dc360d0a9c0677a3379ae0a3d81e887f761e65fdf3d7e00859d1bcd3c4738960405180806020018281038252604b815260200180612473604b913960600191505060405180910390a161084e565b7fc4dc360d0a9c0677a3379ae0a3d81e887f761e65fdf3d7e00859d1bcd3c4738960405180806020018281038252603581526020018061243e6035913960400191505060405180910390a161084c6040518060400160405280600381526020017f55524c00000000000000000000000000000000000000000000000000000000008152506040518060600160405280604081526020016124be60409139611270565b505b565b6000808311801561086357506006548311155b61086c57600080fd5b60006005541161087b57600080fd5b600061088684610e91565b90506000811161089557600080fd5b6108a0836002610d88565b6007600083815260200190815260200160002060010181905550600191505092915050565b60055481565b60606000821180156108df57506006548211155b6108e857600080fd5b6000600554116108f757600080fd5b600061090283610e91565b90506000811161091157600080fd5b6000600760008381526020019081526020016000206001015490506109a0610958606460076000868152602001908152602001600020600101548161095257fe5b046117b4565b6040518060400160405280600181526020017f2e0000000000000000000000000000000000000000000000000000000000000081525061099b84600660046118f8565b611af1565b92505050919050565b60606000600554116109ba57600080fd5b60008080600190505b60065481116109f45760076000828152602001908152602001600020600101548301925080806001019150506109c3565b50610a03826005546002611b27565b9050610a64610a1c6127108381610a1657fe5b046117b4565b6040518060400160405280600181526020017f2e00000000000000000000000000000000000000000000000000000000000000815250610a5f84600860046118f8565b611af1565b9250505090565b60008073ffffffffffffffffffffffffffffffffffffffff16600160009054906101000a900473ffffffffffffffffffffffffffffffffffffffff1673ffffffffffffffffffffffffffffffffffffffff161480610af357506000610af1600160009054906101000a900473ffffffffffffffffffffffffffffffffffffffff16611b41565b145b15610b0457610b026000611b4c565b505b600160009054906101000a900473ffffffffffffffffffffffffffffffffffffffff1673ffffffffffffffffffffffffffffffffffffffff166338cc48316040518163ffffffff1660e01b8152600401602060405180830381600087803b158015610b6e57600080fd5b505af1158015610b82573d6000803e3d6000fd5b505050506040513d6020811015610b9857600080fd5b810190808051906020019092919050505073ffffffffffffffffffffffffffffffffffffffff1660008054906101000a900473ffffffffffffffffffffffffffffffffffffffff1673ffffffffffffffffffffffffffffffffffffffff1614610ce057600160009054906101000a900473ffffffffffffffffffffffffffffffffffffffff1673ffffffffffffffffffffffffffffffffffffffff166338cc48316040518163ffffffff1660e01b8152600401602060405180830381600087803b158015610c6557600080fd5b505af1158015610c79573d6000803e3d6000fd5b505050506040513d6020811015610c8f57600080fd5b81019080805190602001909291905050506000806101000a81548173ffffffffffffffffffffffffffffffffffffffff021916908373ffffffffffffffffffffffffffffffffffffffff1602179055505b60008054906101000a900473ffffffffffffffffffffffffffffffffffffffff1673ffffffffffffffffffffffffffffffffffffffff1663c281d19e6040518163ffffffff1660e01b8152600401602060405180830381600087803b158015610d4857600080fd5b505af1158015610d5c573d6000803e3d6000fd5b505050506040513d6020811015610d7257600080fd5b8101908080519060200190929190505050905090565b6000606083905060008060005b8351811015610e72576030848281518110610dac57fe5b602001015160f81c60f81b60f81c60ff1610158015610de857506039848281518110610dd457fe5b602001015160f81c60f81b60f81c60ff1611155b15610e3a578115610e0b576000861415610e0157610e72565b8580600190039650505b600a830292506030848281518110610e1f57fe5b602001015160f81c60f81b60f81c60ff160383019250610e65565b602e848281518110610e4857fe5b602001015160f81c60f81b60f81c60ff161415610e6457600191505b5b8080600101915050610d95565b506000851115610e855784600a0a820291505b81935050505092915050565b600080600190505b6006548111610ed6578260076000838152602001908152602001600020600001541415610ec95780915050610edc565b8080600101915050610e99565b50600090505b919050565b60008073ffffffffffffffffffffffffffffffffffffffff16600160009054906101000a900473ffffffffffffffffffffffffffffffffffffffff1673ffffffffffffffffffffffffffffffffffffffff161480610f6957506000610f67600160009054906101000a900473ffffffffffffffffffffffffffffffffffffffff16611b41565b145b15610f7a57610f786000611b4c565b505b600160009054906101000a900473ffffffffffffffffffffffffffffffffffffffff1673ffffffffffffffffffffffffffffffffffffffff166338cc48316040518163ffffffff1660e01b8152600401602060405180830381600087803b158015610fe457600080fd5b505af1158015610ff8573d6000803e3d6000fd5b505050506040513d602081101561100e57600080fd5b810190808051906020019092919050505073ffffffffffffffffffffffffffffffffffffffff1660008054906101000a900473ffffffffffffffffffffffffffffffffffffffff1673ffffffffffffffffffffffffffffffffffffffff161461115657600160009054906101000a900473ffffffffffffffffffffffffffffffffffffffff1673ffffffffffffffffffffffffffffffffffffffff166338cc48316040518163ffffffff1660e01b8152600401602060405180830381600087803b1580156110db57600080fd5b505af11580156110ef573d6000803e3d6000fd5b505050506040513d602081101561110557600080fd5b81019080805190602001909291905050506000806101000a81548173ffffffffffffffffffffffffffffffffffffffff021916908373ffffffffffffffffffffffffffffffffffffffff1602179055505b60008054906101000a900473ffffffffffffffffffffffffffffffffffffffff1673ffffffffffffffffffffffffffffffffffffffff1663524f3889836040518263ffffffff1660e01b81526004018080602001828103825283818151815260200191508051906020019080838360005b838110156111e25780820151818401526020810190506111c7565b50505050905090810190601f16801561120f5780820380516001836020036101000a031916815260200191505b5092505050602060405180830381600087803b15801561122e57600080fd5b505af1158015611242573d6000803e3d6000fd5b505050506040513d602081101561125857600080fd5b81019080805190602001909291905050509050919050565b60008073ffffffffffffffffffffffffffffffffffffffff16600160009054906101000a900473ffffffffffffffffffffffffffffffffffffffff1673ffffffffffffffffffffffffffffffffffffffff1614806112f8575060006112f6600160009054906101000a900473ffffffffffffffffffffffffffffffffffffffff16611b41565b145b15611309576113076000611b4c565b505b600160009054906101000a900473ffffffffffffffffffffffffffffffffffffffff1673ffffffffffffffffffffffffffffffffffffffff166338cc48316040518163ffffffff1660e01b8152600401602060405180830381600087803b15801561137357600080fd5b505af1158015611387573d6000803e3d6000fd5b505050506040513d602081101561139d57600080fd5b810190808051906020019092919050505073ffffffffffffffffffffffffffffffffffffffff1660008054906101000a900473ffffffffffffffffffffffffffffffffffffffff1673ffffffffffffffffffffffffffffffffffffffff16146114e557600160009054906101000a900473ffffffffffffffffffffffffffffffffffffffff1673ffffffffffffffffffffffffffffffffffffffff166338cc48316040518163ffffffff1660e01b8152600401602060405180830381600087803b15801561146a57600080fd5b505af115801561147e573d6000803e3d6000fd5b505050506040513d602081101561149457600080fd5b81019080805190602001909291905050506000806101000a81548173ffffffffffffffffffffffffffffffffffffffff021916908373ffffffffffffffffffffffffffffffffffffffff1602179055505b60008060009054906101000a900473ffffffffffffffffffffffffffffffffffffffff1673ffffffffffffffffffffffffffffffffffffffff1663524f3889856040518263ffffffff1660e01b81526004018080602001828103825283818151815260200191508051906020019080838360005b83811015611574578082015181840152602081019050611559565b50505050905090810190601f1680156115a15780820380516001836020036101000a031916815260200191505b5092505050602060405180830381600087803b1580156115c057600080fd5b505af11580156115d4573d6000803e3d6000fd5b505050506040513d60208110156115ea57600080fd5b8101908080519060200190929190505050905062030d403a02670de0b6b3a764000001811115611620576000801b9150506117ae565b60008054906101000a900473ffffffffffffffffffffffffffffffffffffffff1673ffffffffffffffffffffffffffffffffffffffff1663adf59f9982600087876040518563ffffffff1660e01b8152600401808481526020018060200180602001838103835285818151815260200191508051906020019080838360005b838110156116ba57808201518184015260208101905061169f565b50505050905090810190601f1680156116e75780820380516001836020036101000a031916815260200191505b50838103825284818151815260200191508051906020019080838360005b83811015611720578082015181840152602081019050611705565b50505050905090810190601f16801561174d5780820380516001836020036101000a031916815260200191505b50955050505050506020604051808303818588803b15801561176e57600080fd5b505af1158015611782573d6000803e3d6000fd5b50505050506040513d602081101561179957600080fd5b81019080805190602001909291905050509150505b92915050565b606060008214156117fc576040518060400160405280600181526020017f300000000000000000000000000000000000000000000000000000000000000081525090506118f3565b600082905060005b60008214611826578080600101915050600a828161181e57fe5b049150611804565b60608167ffffffffffffffff8111801561183f57600080fd5b506040519080825280601f01601f1916602001820160405280156118725781602001600182028036833780820191505090505b50905060006001830390505b600086146118eb57600a868161189057fe5b0660300160f81b828280600190039350815181106118aa57fe5b60200101907effffffffffffffffffffffffffffffffffffffffffffffffffffffffffffff1916908160001a905350600a86816118e357fe5b04955061187e565b819450505050505b919050565b60606000841415611940576040518060400160405280600181526020017f30000000000000000000000000000000000000000000000000000000000000008152509050611aea565b60608360ff1667ffffffffffffffff8111801561195c57600080fd5b506040519080825280601f01601f19166020018201604052801561198f5781602001600182028036833780820191505090505b509050606083850360ff1667ffffffffffffffff811180156119b057600080fd5b506040519080825280601f01601f1916602001820160405280156119e35781602001600182028036833780820191505090505b50905060006001860360ff1690505b60008714611a5f57600a8781611a0457fe5b0660300160f81b83828060019003935081518110611a1e57fe5b60200101907effffffffffffffffffffffffffffffffffffffffffffffffffffffffffffff1916908160001a905350600a8781611a5757fe5b0496506119f2565b6000808690505b8760ff168160ff161015611ae157848160ff1681518110611a8357fe5b602001015160f81c60f81b848360ff1681518110611a9d57fe5b60200101907effffffffffffffffffffffffffffffffffffffffffffffffffffffffffffff1916908160001a90535081806001019250508080600101915050611a66565b50829450505050505b9392505050565b6060611b1e8484846040518060200160405280600081525060405180602001604052806000815250611b5d565b90509392505050565b60008282600a0a850281611b3757fe5b0490509392505050565b6000813b9050919050565b6000611b56611e2f565b9050919050565b60608086905060608690506060869050606086905060608690506060815183518551875189510101010167ffffffffffffffff81118015611b9d57600080fd5b506040519080825280601f01601f191660200182016040528015611bd05781602001600182028036833780820191505090505b5090506060819050600080600090505b8851811015611c4e57888181518110611bf557fe5b602001015160f81c60f81b838380600101945081518110611c1257fe5b60200101907effffffffffffffffffffffffffffffffffffffffffffffffffffffffffffff1916908160001a9053508080600101915050611be0565b600090505b8751811015611cc157878181518110611c6857fe5b602001015160f81c60f81b838380600101945081518110611c8557fe5b60200101907effffffffffffffffffffffffffffffffffffffffffffffffffffffffffffff1916908160001a9053508080600101915050611c53565b600090505b8651811015611d3457868181518110611cdb57fe5b602001015160f81c60f81b838380600101945081518110611cf857fe5b60200101907effffffffffffffffffffffffffffffffffffffffffffffffffffffffffffff1916908160001a9053508080600101915050611cc6565b600090505b8551811015611da757858181518110611d4e57fe5b602001015160f81c60f81b838380600101945081518110611d6b57fe5b60200101907effffffffffffffffffffffffffffffffffffffffffffffffffffffffffffff1916908160001a9053508080600101915050611d39565b600090505b8451811015611e1a57848181518110611dc157fe5b602001015160f81c60f81b838380600101945081518110611dde57fe5b60200101907effffffffffffffffffffffffffffffffffffffffffffffffffffffffffffff1916908160001a9053508080600101915050611dac565b82995050505050505050505095945050505050565b600080611e4f731d3b2638a7cc9f2cb3d298a3da7a90b67e5506ed611b41565b1115611ef157731d3b2638a7cc9f2cb3d298a3da7a90b67e5506ed600160006101000a81548173ffffffffffffffffffffffffffffffffffffffff021916908373ffffffffffffffffffffffffffffffffffffffff160217905550611ee86040518060400160405280600b81526020017f6574685f6d61696e6e6574000000000000000000000000000000000000000000815250612386565b60019050612383565b6000611f1073c03a2615d5efaf5f49f60b7bb6583eaec212fdf1611b41565b1115611fb25773c03a2615d5efaf5f49f60b7bb6583eaec212fdf1600160006101000a81548173ffffffffffffffffffffffffffffffffffffffff021916908373ffffffffffffffffffffffffffffffffffffffff160217905550611fa96040518060400160405280600c81526020017f6574685f726f707374656e330000000000000000000000000000000000000000815250612386565b60019050612383565b6000611fd173b7a07bcf2ba2f2703b24c0691b5278999c59ac7e611b41565b11156120735773b7a07bcf2ba2f2703b24c0691b5278999c59ac7e600160006101000a81548173ffffffffffffffffffffffffffffffffffffffff021916908373ffffffffffffffffffffffffffffffffffffffff16021790555061206a6040518060400160405280600981526020017f6574685f6b6f76616e0000000000000000000000000000000000000000000000815250612386565b60019050612383565b600061209273146500cfd35b22e4a392fe0adc06de1a1368ed48611b41565b11156121345773146500cfd35b22e4a392fe0adc06de1a1368ed48600160006101000a81548173ffffffffffffffffffffffffffffffffffffffff021916908373ffffffffffffffffffffffffffffffffffffffff16021790555061212b6040518060400160405280600b81526020017f6574685f72696e6b656279000000000000000000000000000000000000000000815250612386565b60019050612383565b600061215373a2998efd205fb9d4b4963afb70778d6354ad3a41611b41565b11156121f55773a2998efd205fb9d4b4963afb70778d6354ad3a41600160006101000a81548173ffffffffffffffffffffffffffffffffffffffff021916908373ffffffffffffffffffffffffffffffffffffffff1602179055506121ec6040518060400160405280600a81526020017f6574685f676f65726c6900000000000000000000000000000000000000000000815250612386565b60019050612383565b6000612214736f485c8bf6fc43ea212e93bbf8ce046c7f1cb475611b41565b111561227857736f485c8bf6fc43ea212e93bbf8ce046c7f1cb475600160006101000a81548173ffffffffffffffffffffffffffffffffffffffff021916908373ffffffffffffffffffffffffffffffffffffffff16021790555060019050612383565b60006122977320e12a1f859b3feae5fb2a0a32c18f5a65555bbf611b41565b11156122fb577320e12a1f859b3feae5fb2a0a32c18f5a65555bbf600160006101000a81548173ffffffffffffffffffffffffffffffffffffffff021916908373ffffffffffffffffffffffffffffffffffffffff16021790555060019050612383565b600061231a7351efaf4c8b3c9afbd5ab9f4bbc82784ab6ef8faa611b41565b111561237e577351efaf4c8b3c9afbd5ab9f4bbc82784ab6ef8faa600160006101000a81548173ffffffffffffffffffffffffffffffffffffffff021916908373ffffffffffffffffffffffffffffffffffffffff16021790555060019050612383565b600090505b90565b806002908051906020019061239c9291906123a0565b5050565b828054600181600116156101000203166002900490600052602060002090601f016020900481019282601f106123e157805160ff191683800117855561240f565b8280016001018555821561240f579182015b8281111561240e5782518255916020019190600101906123f3565b5b50905061241c9190612420565b5090565b5b80821115612439576000816000905550600101612421565b509056fe50726f7661626c65207175657279207761732073656e742c207374616e64696e6720627920666f722074686520616e737765722e2e50726f7661626c6520717565727920776173204e4f542073656e742c20706c656173652061646420736f6d652045544820746f20636f76657220666f7220746865207175657279206665656a736f6e2868747470733a2f2f6170692e70726f2e636f696e626173652e636f6d2f70726f64756374732f4554482d5553442f7469636b6572292e7072696365a26469706673582212202a53948d1022980a93f5f65eac1216ea77d714d3ac3b07c5abbe93b690954c0564736f6c634300060c003350726f7661626c65207175657279207761732073656e742c207374616e64696e6720627920666f722074686520616e737765722e2e50726f7661626c6520717565727920776173204e4f542073656e742c20706c656173652061646420736f6d652045544820746f20636f76657220666f7220746865207175657279206665656a736f6e2868747470733a2f2f6170692e70726f2e636f696e626173652e636f6d2f70726f64756374732f4554482d5553442f7469636b6572292e7072696365436f6e7374727563746f722077617320696e697469617465642e2043616c6c2027637265617465507269636528292720746f2073656e64207468652050726f7661626c652051756572792e",
  "immutableReferences": {},
  "source": "// SPDX-License-Identifier: MIT\npragma solidity >0.6.1 <0.9.0;\n\n//To run tests on your system get some ether on your metamask wallet in ropsten test network from the faucet and then run: truffle test --network ropsten\nimport \"./lib/UsingOraclize.sol\";\n\n//To interact with contract using remix uncomment the line below and comment the line abobe and set compiler version to 0.6.2\n// import \"https://github.com/provable-things/ethereum-api/blob/master/provableAPI_0.6.sol\";\n\n//Note: You have to provide some ether to contract to do more than one oracle querry (createPrice()) since first querry is free\n//To do that just put some amount in value field in remix\n\ncontract ETHUSD is usingProvable {\n    //----------------------------------------------------------------------------------------------------------------------------//\n    //Structure for storing current price from the oracle\n    //----------------------------------------------------------------------------------------------------------------------------//\n    struct ethprice {\n        //this will be unique for every entry\n        uint256 id;\n        //since solidity do not support decimals. I propose this workaround:-\n        //decimal numbers like 2345.67 will be stored as 234567 and as we know\n        //there will be 2 values after decimal so we will sore it without decimal and after\n        //doing the calculations give the output by converting to decimal form and\n        //storing that decimal form in a string\n        uint256 price;\n    }\n\n    //events for oracle querries (we can see these logs on etherscan)\n    event LogConstructorInitiated(string _nextStep);\n    event LogPriceUpdated(string _price);\n    event LogNewProvableQuery(string _description);\n\n    //no. of prices stored\n    uint256 public ctr;\n    //id of the last oracle querry this is done just to make sure that every id is unique\n    uint256 lastID;\n\n    constructor() public payable {\n        emit LogConstructorInitiated(\n            \"Constructor was initiated. Call 'createPrice()' to send the Provable Query.\"\n        );\n        ctr = 0;\n        lastID = 0;\n        //now we will call the createPrice() to get the current ether price at the time of deployment\n        createPrice();\n    }\n\n    //to store all the prices from oracle querries\n    mapping(uint256 => ethprice) Data;\n\n    //----------------------------------------------------------------------------------------------------------------------------//\n    //For finding the mean of all the stored prices\n    //----------------------------------------------------------------------------------------------------------------------------//\n\n    function findMean() public view returns (string memory) {\n        require(ctr > 0);\n        uint256 total = 0;\n        uint256 mean;\n        for (uint256 i = 1; i <= lastID; i++) {\n            total += Data[i].price;\n        }\n        //setting precision as 2 because from oracle we will give the price in 2 decimal places\n        mean = calcul(total, ctr, 2);\n        return (\n            strConcat(uint2str(mean / 10000), \".\", getDecimalPart(mean, 8, 4))\n        );\n    }\n\n    //----------------------------------------------------------------------------------------------------------------------------//\n    //CRUD functions for the structure\n    //----------------------------------------------------------------------------------------------------------------------------//\n\n    //CREATE part of CRUD (to get the current price from the oracle)\n    function createPrice() public payable {\n        if (provable_getPrice(\"URL\") > address(this).balance) {\n            emit LogNewProvableQuery(\n                \"Provable query was NOT sent, please add some ETH to cover for the query fee\"\n            );\n        } else {\n            emit LogNewProvableQuery(\n                \"Provable query was sent, standing by for the answer..\"\n            );\n            provable_query(\n                \"URL\",\n                \"json(https://api.pro.coinbase.com/products/ETH-USD/ticker).price\"\n            );\n        }\n    }\n\n    //this will return the current ether price from the oracle\n    function __callback(bytes32 _myid, string memory _result) public override {\n        if (msg.sender != provable_cbAddress()) revert();\n        ctr++;\n        lastID++;\n        Data[lastID] = ethprice(lastID, parseInt(_result, 2));\n    }\n\n    //READ part of CRUD\n    function readPrice(uint256 _id) public view returns (string memory) {\n        require(_id > 0 && _id <= lastID);\n        require(ctr > 0);\n        uint256 index = getIndex(_id);\n        require(index > 0);\n        uint256 _price = Data[index].price;\n        return\n            strConcat(\n                uint2str(Data[index].price / 100),\n                \".\",\n                getDecimalPart(_price, 6, 4)\n            );\n    }\n\n    //UPDATE part of CRUD (using this we can change the price stored using its id)\n    function updatePrice(uint256 _id, string memory _price)\n        public\n        returns (bool)\n    {\n        require(_id > 0 && _id <= lastID);\n        require(ctr > 0);\n        uint256 index = getIndex(_id);\n        require(index > 0);\n        //note here we are taking the new price in string to not loose the decimal part\n        //converting string into uint and keeping the decimal part\n        Data[index].price = parseInt(_price, 2);\n        return true;\n    }\n\n    //DELETE part of CRUD (using this we can delete an entry from stored prices)\n    function deletePrice(uint256 _id) public returns (bool) {\n        require(_id > 0 && _id <= lastID);\n        require(ctr > 0);\n        uint256 index = getIndex(_id);\n        require(index > 0);\n        uint256 j;\n        for (uint256 i = 1; i <= lastID; i++) {\n            if (i == index) {\n                delete Data[index];\n                ctr--;\n                if (ctr == 0) lastID = 0;\n                return true;\n            }\n        }\n        return false;\n    }\n\n    //----------------------------------------------------------------------------------------------------------------------------//\n    //Other helper functions for calculations\n    //----------------------------------------------------------------------------------------------------------------------------//\n\n    //to divide and save the decimal part\n    function calcul(\n        uint256 a,\n        uint256 b,\n        uint256 precision\n    ) private pure returns (uint256) {\n        return (a * (10**precision)) / b;\n    }\n\n    //to search if a particular id exists in the storred data and return its index\n    function getIndex(uint256 _id) private view returns (uint256) {\n        for (uint256 index = 1; index <= lastID; index++) {\n            if (Data[index].id == _id) {\n                return index;\n            }\n        }\n        return 0;\n    }\n\n    //to get the decimal part\n    function getDecimalPart(\n        uint256 _i,\n        uint8 len,\n        uint8 pos\n    ) private pure returns (string memory _uintAsString) {\n        if (_i == 0) {\n            return \"0\";\n        }\n        bytes memory str1 = new bytes(len);\n        bytes memory str2 = new bytes(len - pos);\n        uint256 k = len - 1;\n        while (_i != 0) {\n            str1[k--] = bytes1(uint8(48 + (_i % 10)));\n            _i /= 10;\n        }\n        uint8 j = 0;\n        for (uint8 i = pos; i < len; i++) {\n            str2[j] = str1[i];\n            j++;\n        }\n        return string(str2);\n    }\n}\n",
  "sourcePath": "/Users/lokeshkumar/truffle/ETHUSD/contracts/ETHUSD.sol",
  "compiler": {
    "name": "solc",
    "version": "0.6.12+commit.27d51765.Emscripten.clang"
  },
  "schemaVersion": "3.3.4",
  "updatedAt": "2021-05-22T17:19:28.940Z",
  "devdoc": {
    "kind": "dev",
    "methods": {
      "__callback(bytes32,string)": {
        "details": "The following `__callback` functions are just placeholders ideally      meant to be defined in child contract when proofs are used.      The function bodies simply silence compiler warnings."
      }
    },
    "version": 1
  },
  "userdoc": {
    "kind": "user",
    "methods": {},
    "version": 1
  }
}